{
  "_format": "hh-sol-artifact-1",
  "contractName": "Aucc",
  "sourceName": "contracts/Aucc.sol",
  "abi": [
    {
      "inputs": [],
      "stateMutability": "nonpayable",
      "type": "constructor"
    },
    {
      "inputs": [],
      "name": "MinimumBidValue",
      "outputs": [
        {
          "internalType": "uint256",
          "name": "",
          "type": "uint256"
        }
      ],
      "stateMutability": "view",
      "type": "function"
    },
    {
      "inputs": [],
      "name": "auctionState",
      "outputs": [
        {
          "internalType": "enum Aucc.State",
          "name": "",
          "type": "uint8"
        }
      ],
      "stateMutability": "view",
      "type": "function"
    },
    {
      "inputs": [
        {
          "internalType": "address",
          "name": "",
          "type": "address"
        }
      ],
      "name": "bids",
      "outputs": [
        {
          "internalType": "uint256",
          "name": "",
          "type": "uint256"
        }
      ],
      "stateMutability": "view",
      "type": "function"
    },
    {
      "inputs": [],
      "name": "cancelAuction",
      "outputs": [],
      "stateMutability": "nonpayable",
      "type": "function"
    },
    {
      "inputs": [],
      "name": "endBlock",
      "outputs": [
        {
          "internalType": "uint256",
          "name": "",
          "type": "uint256"
        }
      ],
      "stateMutability": "view",
      "type": "function"
    },
    {
      "inputs": [],
      "name": "finalizeAuction",
      "outputs": [],
      "stateMutability": "nonpayable",
      "type": "function"
    },
    {
      "inputs": [],
      "name": "highestBid",
      "outputs": [
        {
          "internalType": "uint256",
          "name": "",
          "type": "uint256"
        }
      ],
      "stateMutability": "view",
      "type": "function"
    },
    {
      "inputs": [],
      "name": "highestBidder",
      "outputs": [
        {
          "internalType": "address payable",
          "name": "",
          "type": "address"
        }
      ],
      "stateMutability": "view",
      "type": "function"
    },
    {
      "inputs": [],
      "name": "ipfsHash",
      "outputs": [
        {
          "internalType": "string",
          "name": "",
          "type": "string"
        }
      ],
      "stateMutability": "view",
      "type": "function"
    },
    {
      "inputs": [],
      "name": "owner",
      "outputs": [
        {
          "internalType": "address payable",
          "name": "",
          "type": "address"
        }
      ],
      "stateMutability": "view",
      "type": "function"
    },
    {
      "inputs": [],
      "name": "placeBid",
      "outputs": [],
      "stateMutability": "payable",
      "type": "function"
    },
    {
      "inputs": [],
      "name": "startBlock",
      "outputs": [
        {
          "internalType": "uint256",
          "name": "",
          "type": "uint256"
        }
      ],
      "stateMutability": "view",
      "type": "function"
    },
    {
      "inputs": [
        {
          "internalType": "uint256",
          "name": "blocksCreated",
          "type": "uint256"
        },
        {
          "internalType": "uint256",
          "name": "BidIncrementWei",
          "type": "uint256"
        },
        {
          "internalType": "uint256",
          "name": "_MinimumBidValue",
          "type": "uint256"
        }
      ],
      "name": "startNewBid",
      "outputs": [],
      "stateMutability": "nonpayable",
      "type": "function"
    }
  ],
  "bytecode": "0x608060405234801561001057600080fd5b506000806000806101000a81548173ffffffffffffffffffffffffffffffffffffffff021916908373ffffffffffffffffffffffffffffffffffffffff1602179055506000600560006101000a81548160ff0219169083600381111561007957610078610084565b5b0217905550506100b3565b7f4e487b7100000000000000000000000000000000000000000000000000000000600052602160045260246000fd5b611171806100c26000396000f3fe6080604052600436106100c25760003560e01c80638fa8b7901161007f578063d57bde7911610059578063d57bde7914610246578063d5f8418914610271578063ecfc7ecc1461029c578063f77282ab146102a6576100c2565b80638fa8b790146101d957806391f90157146101f0578063c623674f1461021b576100c2565b8063083c6323146100c7578063341175d5146100f257806348cd4cb11461011b57806362ea82db146101465780637fb45099146101835780638da5cb5b146101ae575b600080fd5b3480156100d357600080fd5b506100dc6102bd565b6040516100e99190610d02565b60405180910390f35b3480156100fe57600080fd5b5061011960048036038101906101149190610d4e565b6102c3565b005b34801561012757600080fd5b506101306103da565b60405161013d9190610d02565b60405180910390f35b34801561015257600080fd5b5061016d60048036038101906101689190610dff565b6103e0565b60405161017a9190610d02565b60405180910390f35b34801561018f57600080fd5b506101986103f8565b6040516101a59190610ea3565b60405180910390f35b3480156101ba57600080fd5b506101c361040b565b6040516101d09190610edf565b60405180910390f35b3480156101e557600080fd5b506101ee61042f565b005b3480156101fc57600080fd5b506102056104b4565b6040516102129190610edf565b60405180910390f35b34801561022757600080fd5b506102306104da565b60405161023d9190610f93565b60405180910390f35b34801561025257600080fd5b5061025b610568565b6040516102689190610d02565b60405180910390f35b34801561027d57600080fd5b5061028661056e565b6040516102939190610d02565b60405180910390f35b6102a4610574565b005b3480156102b257600080fd5b506102bb6108c0565b005b60025481565b60008054906101000a900473ffffffffffffffffffffffffffffffffffffffff1673ffffffffffffffffffffffffffffffffffffffff163373ffffffffffffffffffffffffffffffffffffffff161461031b57600080fd5b6000600381111561032f5761032e610e2c565b5b600560009054906101000a900460ff16600381111561035157610350610e2c565b5b1461035b57600080fd5b43600181905550826001546103709190610fe4565b6002819055506001600560006101000a81548160ff0219169083600381111561039c5761039b610e2c565b5b021790555060405180602001604052806000815250600490805190602001906103c6929190610c46565b508160098190555080600381905550505050565b60015481565b60086020528060005260406000206000915090505481565b600560009054906101000a900460ff1681565b60008054906101000a900473ffffffffffffffffffffffffffffffffffffffff1681565b60008054906101000a900473ffffffffffffffffffffffffffffffffffffffff1673ffffffffffffffffffffffffffffffffffffffff163373ffffffffffffffffffffffffffffffffffffffff161461048757600080fd5b6003600560006101000a81548160ff021916908360038111156104ad576104ac610e2c565b5b0217905550565b600760009054906101000a900473ffffffffffffffffffffffffffffffffffffffff1681565b600480546104e790611069565b80601f016020809104026020016040519081016040528092919081815260200182805461051390611069565b80156105605780601f1061053557610100808354040283529160200191610560565b820191906000526020600020905b81548152906001019060200180831161054357829003601f168201915b505050505081565b60065481565b60035481565b60008054906101000a900473ffffffffffffffffffffffffffffffffffffffff1673ffffffffffffffffffffffffffffffffffffffff163373ffffffffffffffffffffffffffffffffffffffff1614156105cd57600080fd5b6001544310156105dc57600080fd5b6002544311156105eb57600080fd5b600160038111156105ff576105fe610e2c565b5b600560009054906101000a900460ff16600381111561062157610620610e2c565b5b14610661576040517f08c379a0000000000000000000000000000000000000000000000000000000008152600401610658906110e7565b60405180910390fd5b60035434101561067057600080fd5b600034600860003373ffffffffffffffffffffffffffffffffffffffff1673ffffffffffffffffffffffffffffffffffffffff168152602001908152602001600020546106bd9190610fe4565b90506006548110156106ce57600080fd5b80600860003373ffffffffffffffffffffffffffffffffffffffff1673ffffffffffffffffffffffffffffffffffffffff1681526020019081526020016000208190555060086000600760009054906101000a900473ffffffffffffffffffffffffffffffffffffffff1673ffffffffffffffffffffffffffffffffffffffff1673ffffffffffffffffffffffffffffffffffffffff1681526020019081526020016000205481116107fd576107f26009548261078b9190610fe4565b60086000600760009054906101000a900473ffffffffffffffffffffffffffffffffffffffff1673ffffffffffffffffffffffffffffffffffffffff1673ffffffffffffffffffffffffffffffffffffffff16815260200190815260200160002054610bd2565b6006819055506108bd565b6108758160095460086000600760009054906101000a900473ffffffffffffffffffffffffffffffffffffffff1673ffffffffffffffffffffffffffffffffffffffff1673ffffffffffffffffffffffffffffffffffffffff168152602001908152602001600020546108709190610fe4565b610bd2565b60068190555033600760006101000a81548173ffffffffffffffffffffffffffffffffffffffff021916908373ffffffffffffffffffffffffffffffffffffffff1602179055505b50565b6003808111156108d3576108d2610e2c565b5b600560009054906101000a900460ff1660038111156108f5576108f4610e2c565b5b148061090357506002544310155b61090c57600080fd5b61091533610bed565b8061095f57506000600860003373ffffffffffffffffffffffffffffffffffffffff1673ffffffffffffffffffffffffffffffffffffffff16815260200190815260200160002054115b61096857600080fd5b60008060038081111561097e5761097d610e2c565b5b600560009054906101000a900460ff1660038111156109a05761099f610e2c565b5b14156109f057339150600860003373ffffffffffffffffffffffffffffffffffffffff1673ffffffffffffffffffffffffffffffffffffffff168152602001908152602001600020549050610b42565b6109f933610bed565b15610a2b5760008054906101000a900473ffffffffffffffffffffffffffffffffffffffff1691506006549050610b41565b600760009054906101000a900473ffffffffffffffffffffffffffffffffffffffff1673ffffffffffffffffffffffffffffffffffffffff163373ffffffffffffffffffffffffffffffffffffffff161415610afa57600760009054906101000a900473ffffffffffffffffffffffffffffffffffffffff169150600654600860003373ffffffffffffffffffffffffffffffffffffffff1673ffffffffffffffffffffffffffffffffffffffff16815260200190815260200160002054610af39190611107565b9050610b40565b339150600860003373ffffffffffffffffffffffffffffffffffffffff1673ffffffffffffffffffffffffffffffffffffffff1681526020019081526020016000205490505b5b5b6000600860008473ffffffffffffffffffffffffffffffffffffffff1673ffffffffffffffffffffffffffffffffffffffff168152602001908152602001600020819055508173ffffffffffffffffffffffffffffffffffffffff166108fc829081150290604051600060405180830381858888f19350505050158015610bcd573d6000803e3d6000fd5b505050565b6000828211610be357819050610be7565b8290505b92915050565b60008060009054906101000a900473ffffffffffffffffffffffffffffffffffffffff1673ffffffffffffffffffffffffffffffffffffffff168273ffffffffffffffffffffffffffffffffffffffff16149050919050565b828054610c5290611069565b90600052602060002090601f016020900481019282610c745760008555610cbb565b82601f10610c8d57805160ff1916838001178555610cbb565b82800160010185558215610cbb579182015b82811115610cba578251825591602001919060010190610c9f565b5b509050610cc89190610ccc565b5090565b5b80821115610ce5576000816000905550600101610ccd565b5090565b6000819050919050565b610cfc81610ce9565b82525050565b6000602082019050610d176000830184610cf3565b92915050565b600080fd5b610d2b81610ce9565b8114610d3657600080fd5b50565b600081359050610d4881610d22565b92915050565b600080600060608486031215610d6757610d66610d1d565b5b6000610d7586828701610d39565b9350506020610d8686828701610d39565b9250506040610d9786828701610d39565b9150509250925092565b600073ffffffffffffffffffffffffffffffffffffffff82169050919050565b6000610dcc82610da1565b9050919050565b610ddc81610dc1565b8114610de757600080fd5b50565b600081359050610df981610dd3565b92915050565b600060208284031215610e1557610e14610d1d565b5b6000610e2384828501610dea565b91505092915050565b7f4e487b7100000000000000000000000000000000000000000000000000000000600052602160045260246000fd5b60048110610e6c57610e6b610e2c565b5b50565b6000819050610e7d82610e5b565b919050565b6000610e8d82610e6f565b9050919050565b610e9d81610e82565b82525050565b6000602082019050610eb86000830184610e94565b92915050565b6000610ec982610da1565b9050919050565b610ed981610ebe565b82525050565b6000602082019050610ef46000830184610ed0565b92915050565b600081519050919050565b600082825260208201905092915050565b60005b83811015610f34578082015181840152602081019050610f19565b83811115610f43576000848401525b50505050565b6000601f19601f8301169050919050565b6000610f6582610efa565b610f6f8185610f05565b9350610f7f818560208601610f16565b610f8881610f49565b840191505092915050565b60006020820190508181036000830152610fad8184610f5a565b905092915050565b7f4e487b7100000000000000000000000000000000000000000000000000000000600052601160045260246000fd5b6000610fef82610ce9565b9150610ffa83610ce9565b9250827fffffffffffffffffffffffffffffffffffffffffffffffffffffffffffffffff0382111561102f5761102e610fb5565b5b828201905092915050565b7f4e487b7100000000000000000000000000000000000000000000000000000000600052602260045260246000fd5b6000600282049050600182168061108157607f821691505b602082108114156110955761109461103a565b5b50919050565b7f5468652061756374696f6e2077696c6c2073746172742073686f72746c790000600082015250565b60006110d1601e83610f05565b91506110dc8261109b565b602082019050919050565b60006020820190508181036000830152611100816110c4565b9050919050565b600061111282610ce9565b915061111d83610ce9565b9250828210156111305761112f610fb5565b5b82820390509291505056fea2646970667358221220f98ee6ab6c158de28d0de363ae40efbf475cf9a9ce914b31e87892a82c2ab4e464736f6c63430008090033",
  "linkReferences": {},
  "deployedLinkReferences": {}
}